{
  "abi": [
    {
      "type": "constructor",
      "inputs": [
        {
          "name": "_usdc",
          "type": "address",
          "internalType": "address"
        },
        {
          "name": "_employeeRegistry",
          "type": "address",
          "internalType": "address"
        },
        {
          "name": "_admin",
          "type": "address",
          "internalType": "address"
        }
      ],
      "stateMutability": "nonpayable"
    },
    {
      "type": "function",
      "name": "ADMIN_ROLE",
      "inputs": [],
      "outputs": [
        {
          "name": "",
          "type": "bytes32",
          "internalType": "bytes32"
        }
      ],
      "stateMutability": "view"
    },
    {
      "type": "function",
      "name": "DEFAULT_ADMIN_ROLE",
      "inputs": [],
      "outputs": [
        {
          "name": "",
          "type": "bytes32",
          "internalType": "bytes32"
        }
      ],
      "stateMutability": "view"
    },
    {
      "type": "function",
      "name": "PAYROLL_OPERATOR_ROLE",
      "inputs": [],
      "outputs": [
        {
          "name": "",
          "type": "bytes32",
          "internalType": "bytes32"
        }
      ],
      "stateMutability": "view"
    },
    {
      "type": "function",
      "name": "currentPayrollId",
      "inputs": [],
      "outputs": [
        {
          "name": "",
          "type": "uint256",
          "internalType": "uint256"
        }
      ],
      "stateMutability": "view"
    },
    {
      "type": "function",
      "name": "depositPayroll",
      "inputs": [
        {
          "name": "amount",
          "type": "uint256",
          "internalType": "uint256"
        }
      ],
      "outputs": [],
      "stateMutability": "nonpayable"
    },
    {
      "type": "function",
      "name": "emergencyWithdraw",
      "inputs": [
        {
          "name": "amount",
          "type": "uint256",
          "internalType": "uint256"
        }
      ],
      "outputs": [],
      "stateMutability": "nonpayable"
    },
    {
      "type": "function",
      "name": "employeeRegistry",
      "inputs": [],
      "outputs": [
        {
          "name": "",
          "type": "address",
          "internalType": "contract IEmployeeRegistry"
        }
      ],
      "stateMutability": "view"
    },
    {
      "type": "function",
      "name": "executePayroll",
      "inputs": [],
      "outputs": [],
      "stateMutability": "nonpayable"
    },
    {
      "type": "function",
      "name": "getBalance",
      "inputs": [],
      "outputs": [
        {
          "name": "",
          "type": "uint256",
          "internalType": "uint256"
        }
      ],
      "stateMutability": "view"
    },
    {
      "type": "function",
      "name": "getRoleAdmin",
      "inputs": [
        {
          "name": "role",
          "type": "bytes32",
          "internalType": "bytes32"
        }
      ],
      "outputs": [
        {
          "name": "",
          "type": "bytes32",
          "internalType": "bytes32"
        }
      ],
      "stateMutability": "view"
    },
    {
      "type": "function",
      "name": "grantRole",
      "inputs": [
        {
          "name": "role",
          "type": "bytes32",
          "internalType": "bytes32"
        },
        {
          "name": "account",
          "type": "address",
          "internalType": "address"
        }
      ],
      "outputs": [],
      "stateMutability": "nonpayable"
    },
    {
      "type": "function",
      "name": "hasRole",
      "inputs": [
        {
          "name": "role",
          "type": "bytes32",
          "internalType": "bytes32"
        },
        {
          "name": "account",
          "type": "address",
          "internalType": "address"
        }
      ],
      "outputs": [
        {
          "name": "",
          "type": "bool",
          "internalType": "bool"
        }
      ],
      "stateMutability": "view"
    },
    {
      "type": "function",
      "name": "pause",
      "inputs": [],
      "outputs": [],
      "stateMutability": "nonpayable"
    },
    {
      "type": "function",
      "name": "paused",
      "inputs": [],
      "outputs": [
        {
          "name": "",
          "type": "bool",
          "internalType": "bool"
        }
      ],
      "stateMutability": "view"
    },
    {
      "type": "function",
      "name": "payrollClaims",
      "inputs": [
        {
          "name": "",
          "type": "uint256",
          "internalType": "uint256"
        },
        {
          "name": "",
          "type": "address",
          "internalType": "address"
        }
      ],
      "outputs": [
        {
          "name": "",
          "type": "bool",
          "internalType": "bool"
        }
      ],
      "stateMutability": "view"
    },
    {
      "type": "function",
      "name": "payrollRuns",
      "inputs": [
        {
          "name": "",
          "type": "uint256",
          "internalType": "uint256"
        }
      ],
      "outputs": [
        {
          "name": "id",
          "type": "uint256",
          "internalType": "uint256"
        },
        {
          "name": "timestamp",
          "type": "uint256",
          "internalType": "uint256"
        },
        {
          "name": "totalAmount",
          "type": "uint256",
          "internalType": "uint256"
        },
        {
          "name": "employeeCount",
          "type": "uint256",
          "internalType": "uint256"
        },
        {
          "name": "merkleRoot",
          "type": "bytes32",
          "internalType": "bytes32"
        },
        {
          "name": "isCompleted",
          "type": "bool",
          "internalType": "bool"
        }
      ],
      "stateMutability": "view"
    },
    {
      "type": "function",
      "name": "renounceRole",
      "inputs": [
        {
          "name": "role",
          "type": "bytes32",
          "internalType": "bytes32"
        },
        {
          "name": "callerConfirmation",
          "type": "address",
          "internalType": "address"
        }
      ],
      "outputs": [],
      "stateMutability": "nonpayable"
    },
    {
      "type": "function",
      "name": "revokeRole",
      "inputs": [
        {
          "name": "role",
          "type": "bytes32",
          "internalType": "bytes32"
        },
        {
          "name": "account",
          "type": "address",
          "internalType": "address"
        }
      ],
      "outputs": [],
      "stateMutability": "nonpayable"
    },
    {
      "type": "function",
      "name": "setEmployeeRegistry",
      "inputs": [
        {
          "name": "_employeeRegistry",
          "type": "address",
          "internalType": "address"
        }
      ],
      "outputs": [],
      "stateMutability": "nonpayable"
    },
    {
      "type": "function",
      "name": "supportsInterface",
      "inputs": [
        {
          "name": "interfaceId",
          "type": "bytes4",
          "internalType": "bytes4"
        }
      ],
      "outputs": [
        {
          "name": "",
          "type": "bool",
          "internalType": "bool"
        }
      ],
      "stateMutability": "view"
    },
    {
      "type": "function",
      "name": "totalPayrollRuns",
      "inputs": [],
      "outputs": [
        {
          "name": "",
          "type": "uint256",
          "internalType": "uint256"
        }
      ],
      "stateMutability": "view"
    },
    {
      "type": "function",
      "name": "unpause",
      "inputs": [],
      "outputs": [],
      "stateMutability": "nonpayable"
    },
    {
      "type": "function",
      "name": "usdc",
      "inputs": [],
      "outputs": [
        {
          "name": "",
          "type": "address",
          "internalType": "contract IERC20"
        }
      ],
      "stateMutability": "view"
    },
    {
      "type": "event",
      "name": "EmergencyWithdraw",
      "inputs": [
        {
          "name": "admin",
          "type": "address",
          "indexed": true,
          "internalType": "address"
        },
        {
          "name": "amount",
          "type": "uint256",
          "indexed": false,
          "internalType": "uint256"
        }
      ],
      "anonymous": false
    },
    {
      "type": "event",
      "name": "Paused",
      "inputs": [
        {
          "name": "account",
          "type": "address",
          "indexed": false,
          "internalType": "address"
        }
      ],
      "anonymous": false
    },
    {
      "type": "event",
      "name": "PayrollClaimed",
      "inputs": [
        {
          "name": "payrollId",
          "type": "uint256",
          "indexed": true,
          "internalType": "uint256"
        },
        {
          "name": "employee",
          "type": "address",
          "indexed": true,
          "internalType": "address"
        },
        {
          "name": "amount",
          "type": "uint256",
          "indexed": false,
          "internalType": "uint256"
        }
      ],
      "anonymous": false
    },
    {
      "type": "event",
      "name": "PayrollDeposited",
      "inputs": [
        {
          "name": "depositor",
          "type": "address",
          "indexed": true,
          "internalType": "address"
        },
        {
          "name": "amount",
          "type": "uint256",
          "indexed": false,
          "internalType": "uint256"
        }
      ],
      "anonymous": false
    },
    {
      "type": "event",
      "name": "PayrollExecuted",
      "inputs": [
        {
          "name": "payrollId",
          "type": "uint256",
          "indexed": true,
          "internalType": "uint256"
        },
        {
          "name": "totalAmount",
          "type": "uint256",
          "indexed": false,
          "internalType": "uint256"
        },
        {
          "name": "employeeCount",
          "type": "uint256",
          "indexed": false,
          "internalType": "uint256"
        }
      ],
      "anonymous": false
    },
    {
      "type": "event",
      "name": "RoleAdminChanged",
      "inputs": [
        {
          "name": "role",
          "type": "bytes32",
          "indexed": true,
          "internalType": "bytes32"
        },
        {
          "name": "previousAdminRole",
          "type": "bytes32",
          "indexed": true,
          "internalType": "bytes32"
        },
        {
          "name": "newAdminRole",
          "type": "bytes32",
          "indexed": true,
          "internalType": "bytes32"
        }
      ],
      "anonymous": false
    },
    {
      "type": "event",
      "name": "RoleGranted",
      "inputs": [
        {
          "name": "role",
          "type": "bytes32",
          "indexed": true,
          "internalType": "bytes32"
        },
        {
          "name": "account",
          "type": "address",
          "indexed": true,
          "internalType": "address"
        },
        {
          "name": "sender",
          "type": "address",
          "indexed": true,
          "internalType": "address"
        }
      ],
      "anonymous": false
    },
    {
      "type": "event",
      "name": "RoleRevoked",
      "inputs": [
        {
          "name": "role",
          "type": "bytes32",
          "indexed": true,
          "internalType": "bytes32"
        },
        {
          "name": "account",
          "type": "address",
          "indexed": true,
          "internalType": "address"
        },
        {
          "name": "sender",
          "type": "address",
          "indexed": true,
          "internalType": "address"
        }
      ],
      "anonymous": false
    },
    {
      "type": "event",
      "name": "Unpaused",
      "inputs": [
        {
          "name": "account",
          "type": "address",
          "indexed": false,
          "internalType": "address"
        }
      ],
      "anonymous": false
    },
    {
      "type": "error",
      "name": "AccessControlBadConfirmation",
      "inputs": []
    },
    {
      "type": "error",
      "name": "AccessControlUnauthorizedAccount",
      "inputs": [
        {
          "name": "account",
          "type": "address",
          "internalType": "address"
        },
        {
          "name": "neededRole",
          "type": "bytes32",
          "internalType": "bytes32"
        }
      ]
    },
    {
      "type": "error",
      "name": "EnforcedPause",
      "inputs": []
    },
    {
      "type": "error",
      "name": "ExpectedPause",
      "inputs": []
    },
    {
      "type": "error",
      "name": "InsufficientBalance",
      "inputs": []
    },
    {
      "type": "error",
      "name": "InvalidEmployee",
      "inputs": []
    },
    {
      "type": "error",
      "name": "InvalidPayrollId",
      "inputs": []
    },
    {
      "type": "error",
      "name": "PayrollAlreadyClaimed",
      "inputs": []
    },
    {
      "type": "error",
      "name": "ReentrancyGuardReentrantCall",
      "inputs": []
    }
  ],
  "bytecode": {
    "object": "0x60a060405234801561000f575f5ffd5b506040516124cb3803806124cb83398181016040528101906100319190610335565b600161004f61004461014660201b60201c565b61016f60201b60201c565b5f01819055508273ffffffffffffffffffffffffffffffffffffffff1660808173ffffffffffffffffffffffffffffffffffffffff1681525050816001806101000a81548173ffffffffffffffffffffffffffffffffffffffff021916908373ffffffffffffffffffffffffffffffffffffffff1602179055506100db5f5f1b8261017860201b60201c565b5061010c7fa49807205ce4d355092ef5a8a18f56e8913cf4a201fbe287825b095693c217758261017860201b60201c565b5061013d7fa00e4d8cd05372905e218ca9dfd779ae23aa2a1e5b48da75f16a3b5e89fa332f8261017860201b60201c565b50505050610385565b5f7f9b779b17422d0df92223018b32b4d1fa46e071723d6817e2486d003becc55f005f1b905090565b5f819050919050565b5f610189838361026d60201b60201c565b6102635760015f5f8581526020019081526020015f205f015f8473ffffffffffffffffffffffffffffffffffffffff1673ffffffffffffffffffffffffffffffffffffffff1681526020019081526020015f205f6101000a81548160ff0219169083151502179055506102006102d060201b60201c565b73ffffffffffffffffffffffffffffffffffffffff168273ffffffffffffffffffffffffffffffffffffffff16847f2f8788117e7eff1d82e926ec794901d17c78024a50270940304540a733656f0d60405160405180910390a460019050610267565b5f90505b92915050565b5f5f5f8481526020019081526020015f205f015f8373ffffffffffffffffffffffffffffffffffffffff1673ffffffffffffffffffffffffffffffffffffffff1681526020019081526020015f205f9054906101000a900460ff16905092915050565b5f33905090565b5f5ffd5b5f73ffffffffffffffffffffffffffffffffffffffff82169050919050565b5f610304826102db565b9050919050565b610314816102fa565b811461031e575f5ffd5b50565b5f8151905061032f8161030b565b92915050565b5f5f5f6060848603121561034c5761034b6102d7565b5b5f61035986828701610321565b935050602061036a86828701610321565b925050604061037b86828701610321565b9150509250925092565b60805161210b6103c05f395f818161049a015281816106f80152818161096401528181610c6001528181610cc60152611010015261210b5ff3fe608060405234801561000f575f5ffd5b506004361061014b575f3560e01c80635b2d3bf7116100c1578063973a6b531161007a578063973a6b531461033f578063a217fddf14610374578063bab7347914610392578063d547741f146103ae578063ec00cdbc146103ca578063fd2a52a1146103fa5761014b565b80635b2d3bf71461028f5780635c975abb146102ab5780636ddc9425146102c957806375b238fc146102e75780638456cb591461030557806391d148541461030f5761014b565b80632f2ff15d116101135780632f2ff15d146101f5578063357b750b1461021157806336568abe1461022f5780633e413bee1461024b5780633f4ba83a146102695780635312ea8e146102735761014b565b806301ffc9a71461014f578063031c8eea1461017f57806312065fe01461019d5780631e588ae6146101bb578063248a9ca3146101c5575b5f5ffd5b610169600480360381019061016491906116ad565b610418565b60405161017691906116f2565b60405180910390f35b610187610491565b6040516101949190611723565b60405180910390f35b6101a5610497565b6040516101b29190611723565b60405180910390f35b6101c3610535565b005b6101df60048036038101906101da919061176f565b610b81565b6040516101ec91906117a9565b60405180910390f35b61020f600480360381019061020a919061181c565b610b9d565b005b610219610bbf565b60405161022691906117a9565b60405180910390f35b6102496004803603810190610244919061181c565b610be3565b005b610253610c5e565b60405161026091906118b5565b60405180910390f35b610271610c82565b005b61028d600480360381019061028891906118f8565b610cb7565b005b6102a960048036038101906102a49190611923565b610df4565b005b6102b3610e62565b6040516102c091906116f2565b60405180910390f35b6102d1610e77565b6040516102de919061196e565b60405180910390f35b6102ef610e9b565b6040516102fc91906117a9565b60405180910390f35b61030d610ebf565b005b6103296004803603810190610324919061181c565b610ef4565b60405161033691906116f2565b60405180910390f35b610359600480360381019061035491906118f8565b610f57565b60405161036b96959493929190611987565b60405180910390f35b61037c610f9b565b60405161038991906117a9565b60405180910390f35b6103ac60048036038101906103a791906118f8565b610fa1565b005b6103c860048036038101906103c3919061181c565b611140565b005b6103e460048036038101906103df91906119e6565b611162565b6040516103f191906116f2565b60405180910390f35b61040261118c565b60405161040f9190611723565b60405180910390f35b5f7f7965db0b000000000000000000000000000000000000000000000000000000007bffffffffffffffffffffffffffffffffffffffffffffffffffffffff1916827bffffffffffffffffffffffffffffffffffffffffffffffffffffffff1916148061048a575061048982611192565b5b9050919050565b60055481565b5f7f000000000000000000000000000000000000000000000000000000000000000073ffffffffffffffffffffffffffffffffffffffff166370a08231306040518263ffffffff1660e01b81526004016104f19190611a33565b602060405180830381865afa15801561050c573d5f5f3e3d5ffd5b505050506040513d601f19601f820116820180604052508101906105309190611a60565b905090565b7fa00e4d8cd05372905e218ca9dfd779ae23aa2a1e5b48da75f16a3b5e89fa332f61055f816111fb565b61056761120f565b61056f611250565b5f60018054906101000a900473ffffffffffffffffffffffffffffffffffffffff1673ffffffffffffffffffffffffffffffffffffffff166347e23df96040518163ffffffff1660e01b81526004015f60405180830381865afa1580156105d8573d5f5f3e3d5ffd5b505050506040513d5f823e3d601f19601f820116820180604052508101906106009190611bef565b90505f5f90505f5f90505b82518110156106f4575f5f60018054906101000a900473ffffffffffffffffffffffffffffffffffffffff1673ffffffffffffffffffffffffffffffffffffffff166332648e0986858151811061066557610664611c36565b5b60200260200101516040518263ffffffff1660e01b81526004016106899190611a33565b5f60405180830381865afa1580156106a3573d5f5f3e3d5ffd5b505050506040513d5f823e3d601f19601f820116820180604052508101906106cb9190611d3d565b925092505080156106e55781846106e29190611dd6565b93505b5050808060010191505061060b565b50807f000000000000000000000000000000000000000000000000000000000000000073ffffffffffffffffffffffffffffffffffffffff166370a08231306040518263ffffffff1660e01b815260040161074f9190611a33565b602060405180830381865afa15801561076a573d5f5f3e3d5ffd5b505050506040513d601f19601f8201168201806040525081019061078e9190611a60565b10156107c6576040517ff4d678b800000000000000000000000000000000000000000000000000000000815260040160405180910390fd5b60045f8154809291906107d890611e09565b919050555060055f8154809291906107ef90611e09565b91905055506040518060c001604052806004548152602001428152602001828152602001835181526020015f5f1b81526020015f151581525060025f60045481526020019081526020015f205f820151815f01556020820151816001015560408201518160020155606082015181600301556080820151816004015560a0820151816005015f6101000a81548160ff0219169083151502179055509050505f5f90505b8251811015610b08575f8382815181106108af576108ae611c36565b5b602002602001015190505f5f60018054906101000a900473ffffffffffffffffffffffffffffffffffffffff1673ffffffffffffffffffffffffffffffffffffffff166332648e09846040518263ffffffff1660e01b81526004016109149190611a33565b5f60405180830381865afa15801561092e573d5f5f3e3d5ffd5b505050506040513d5f823e3d601f19601f820116820180604052508101906109569190611d3d565b92509250508015610af8575f7f000000000000000000000000000000000000000000000000000000000000000073ffffffffffffffffffffffffffffffffffffffff1663a9059cbb85856040518363ffffffff1660e01b81526004016109bd929190611e50565b6020604051808303815f875af11580156109d9573d5f5f3e3d5ffd5b505050506040513d601f19601f820116820180604052508101906109fd9190611e77565b905080610a3f576040517f08c379a0000000000000000000000000000000000000000000000000000000008152600401610a3690611efc565b60405180910390fd5b600160035f60045481526020019081526020015f205f8673ffffffffffffffffffffffffffffffffffffffff1673ffffffffffffffffffffffffffffffffffffffff1681526020019081526020015f205f6101000a81548160ff0219169083151502179055508373ffffffffffffffffffffffffffffffffffffffff166004547ff047ae97d6e77b909438ee0321b4cfd287bf5633f353d878e3ae78ebff0b8bc385604051610aee9190611723565b60405180910390a3505b5050508080600101915050610892565b50600160025f60045481526020019081526020015f206005015f6101000a81548160ff0219169083151502179055506004547f9234700c4ee633a8b3712373ae90e66a131269de823aa11e607eada5c2e76cdc828451604051610b6c929190611f1a565b60405180910390a25050610b7e611272565b50565b5f5f5f8381526020019081526020015f20600101549050919050565b610ba682610b81565b610baf816111fb565b610bb9838361128c565b50505050565b7fa00e4d8cd05372905e218ca9dfd779ae23aa2a1e5b48da75f16a3b5e89fa332f81565b610beb611375565b73ffffffffffffffffffffffffffffffffffffffff168173ffffffffffffffffffffffffffffffffffffffff1614610c4f576040517f6697b23200000000000000000000000000000000000000000000000000000000815260040160405180910390fd5b610c59828261137c565b505050565b7f000000000000000000000000000000000000000000000000000000000000000081565b7fa49807205ce4d355092ef5a8a18f56e8913cf4a201fbe287825b095693c21775610cac816111fb565b610cb4611465565b50565b5f5f1b610cc3816111fb565b5f7f000000000000000000000000000000000000000000000000000000000000000073ffffffffffffffffffffffffffffffffffffffff1663a9059cbb33856040518363ffffffff1660e01b8152600401610d1f929190611e50565b6020604051808303815f875af1158015610d3b573d5f5f3e3d5ffd5b505050506040513d601f19601f82011682018060405250810190610d5f9190611e77565b905080610da1576040517f08c379a0000000000000000000000000000000000000000000000000000000008152600401610d9890611f8b565b60405180910390fd5b3373ffffffffffffffffffffffffffffffffffffffff167f5fafa99d0643513820be26656b45130b01e1c03062e1266bf36f88cbd3bd969584604051610de79190611723565b60405180910390a2505050565b7fa49807205ce4d355092ef5a8a18f56e8913cf4a201fbe287825b095693c21775610e1e816111fb565b816001806101000a81548173ffffffffffffffffffffffffffffffffffffffff021916908373ffffffffffffffffffffffffffffffffffffffff1602179055505050565b5f60015f9054906101000a900460ff16905090565b60018054906101000a900473ffffffffffffffffffffffffffffffffffffffff1681565b7fa49807205ce4d355092ef5a8a18f56e8913cf4a201fbe287825b095693c2177581565b7fa49807205ce4d355092ef5a8a18f56e8913cf4a201fbe287825b095693c21775610ee9816111fb565b610ef16114c6565b50565b5f5f5f8481526020019081526020015f205f015f8373ffffffffffffffffffffffffffffffffffffffff1673ffffffffffffffffffffffffffffffffffffffff1681526020019081526020015f205f9054906101000a900460ff16905092915050565b6002602052805f5260405f205f91509050805f015490806001015490806002015490806003015490806004015490806005015f9054906101000a900460ff16905086565b5f5f1b81565b7fa49807205ce4d355092ef5a8a18f56e8913cf4a201fbe287825b095693c21775610fcb816111fb565b5f821161100d576040517f08c379a000000000000000000000000000000000000000000000000000000000815260040161100490611ff3565b60405180910390fd5b5f7f000000000000000000000000000000000000000000000000000000000000000073ffffffffffffffffffffffffffffffffffffffff166323b872dd3330866040518463ffffffff1660e01b815260040161106b93929190612011565b6020604051808303815f875af1158015611087573d5f5f3e3d5ffd5b505050506040513d601f19601f820116820180604052508101906110ab9190611e77565b9050806110ed576040517f08c379a00000000000000000000000000000000000000000000000000000000081526004016110e490612090565b60405180910390fd5b3373ffffffffffffffffffffffffffffffffffffffff167fcfd175f99dff9e5488217ca95faeffabefca23191b9f39585f9b163688594768846040516111339190611723565b60405180910390a2505050565b61114982610b81565b611152816111fb565b61115c838361137c565b50505050565b6003602052815f5260405f20602052805f5260405f205f915091509054906101000a900460ff1681565b60045481565b5f7f01ffc9a7000000000000000000000000000000000000000000000000000000007bffffffffffffffffffffffffffffffffffffffffffffffffffffffff1916827bffffffffffffffffffffffffffffffffffffffffffffffffffffffff1916149050919050565b61120c81611207611375565b611527565b50565b611217610e62565b1561124e576040517fd93c066500000000000000000000000000000000000000000000000000000000815260040160405180910390fd5b565b611258611578565b600261126a6112656115b9565b6115e2565b5f0181905550565b600161128461127f6115b9565b6115e2565b5f0181905550565b5f6112978383610ef4565b61136b5760015f5f8581526020019081526020015f205f015f8473ffffffffffffffffffffffffffffffffffffffff1673ffffffffffffffffffffffffffffffffffffffff1681526020019081526020015f205f6101000a81548160ff021916908315150217905550611308611375565b73ffffffffffffffffffffffffffffffffffffffff168273ffffffffffffffffffffffffffffffffffffffff16847f2f8788117e7eff1d82e926ec794901d17c78024a50270940304540a733656f0d60405160405180910390a46001905061136f565b5f90505b92915050565b5f33905090565b5f6113878383610ef4565b1561145b575f5f5f8581526020019081526020015f205f015f8473ffffffffffffffffffffffffffffffffffffffff1673ffffffffffffffffffffffffffffffffffffffff1681526020019081526020015f205f6101000a81548160ff0219169083151502179055506113f8611375565b73ffffffffffffffffffffffffffffffffffffffff168273ffffffffffffffffffffffffffffffffffffffff16847ff6391f5c32d9c69d2a47ea670b442974b53935d1edc7fd64eb21e047a839171b60405160405180910390a46001905061145f565b5f90505b92915050565b61146d6115eb565b5f60015f6101000a81548160ff0219169083151502179055507f5db9ee0a495bf2e6ff9c91a7834c1ba4fdd244a5e8aa4e537bd38aeae4b073aa6114af611375565b6040516114bc9190611a33565b60405180910390a1565b6114ce61120f565b6001805f6101000a81548160ff0219169083151502179055507f62e78cea01bee320cd4e420270b5ea74000d11b0c9f74754ebdbfc544b05a258611510611375565b60405161151d9190611a33565b60405180910390a1565b6115318282610ef4565b6115745780826040517fe2517d3f00000000000000000000000000000000000000000000000000000000815260040161156b9291906120ae565b60405180910390fd5b5050565b61158061162b565b156115b7576040517f3ee5aeb500000000000000000000000000000000000000000000000000000000815260040160405180910390fd5b565b5f7f9b779b17422d0df92223018b32b4d1fa46e071723d6817e2486d003becc55f005f1b905090565b5f819050919050565b6115f3610e62565b611629576040517f8dfc202b00000000000000000000000000000000000000000000000000000000815260040160405180910390fd5b565b5f600261163e6116396115b9565b6115e2565b5f015414905090565b5f604051905090565b5f5ffd5b5f5ffd5b5f7fffffffff0000000000000000000000000000000000000000000000000000000082169050919050565b61168c81611658565b8114611696575f5ffd5b50565b5f813590506116a781611683565b92915050565b5f602082840312156116c2576116c1611650565b5b5f6116cf84828501611699565b91505092915050565b5f8115159050919050565b6116ec816116d8565b82525050565b5f6020820190506117055f8301846116e3565b92915050565b5f819050919050565b61171d8161170b565b82525050565b5f6020820190506117365f830184611714565b92915050565b5f819050919050565b61174e8161173c565b8114611758575f5ffd5b50565b5f8135905061176981611745565b92915050565b5f6020828403121561178457611783611650565b5b5f6117918482850161175b565b91505092915050565b6117a38161173c565b82525050565b5f6020820190506117bc5f83018461179a565b92915050565b5f73ffffffffffffffffffffffffffffffffffffffff82169050919050565b5f6117eb826117c2565b9050919050565b6117fb816117e1565b8114611805575f5ffd5b50565b5f81359050611816816117f2565b92915050565b5f5f6040838503121561183257611831611650565b5b5f61183f8582860161175b565b925050602061185085828601611808565b9150509250929050565b5f819050919050565b5f61187d611878611873846117c2565b61185a565b6117c2565b9050919050565b5f61188e82611863565b9050919050565b5f61189f82611884565b9050919050565b6118af81611895565b82525050565b5f6020820190506118c85f8301846118a6565b92915050565b6118d78161170b565b81146118e1575f5ffd5b50565b5f813590506118f2816118ce565b92915050565b5f6020828403121561190d5761190c611650565b5b5f61191a848285016118e4565b91505092915050565b5f6020828403121561193857611937611650565b5b5f61194584828501611808565b91505092915050565b5f61195882611884565b9050919050565b6119688161194e565b82525050565b5f6020820190506119815f83018461195f565b92915050565b5f60c08201905061199a5f830189611714565b6119a76020830188611714565b6119b46040830187611714565b6119c16060830186611714565b6119ce608083018561179a565b6119db60a08301846116e3565b979650505050505050565b5f5f604083850312156119fc576119fb611650565b5b5f611a09858286016118e4565b9250506020611a1a85828601611808565b9150509250929050565b611a2d816117e1565b82525050565b5f602082019050611a465f830184611a24565b92915050565b5f81519050611a5a816118ce565b92915050565b5f60208284031215611a7557611a74611650565b5b5f611a8284828501611a4c565b91505092915050565b5f5ffd5b5f601f19601f8301169050919050565b7f4e487b71000000000000000000000000000000000000000000000000000000005f52604160045260245ffd5b611ad582611a8f565b810181811067ffffffffffffffff82111715611af457611af3611a9f565b5b80604052505050565b5f611b06611647565b9050611b128282611acc565b919050565b5f67ffffffffffffffff821115611b3157611b30611a9f565b5b602082029050602081019050919050565b5f5ffd5b5f81519050611b54816117f2565b92915050565b5f611b6c611b6784611b17565b611afd565b90508083825260208201905060208402830185811115611b8f57611b8e611b42565b5b835b81811015611bb85780611ba48882611b46565b845260208401935050602081019050611b91565b5050509392505050565b5f82601f830112611bd657611bd5611a8b565b5b8151611be6848260208601611b5a565b91505092915050565b5f60208284031215611c0457611c03611650565b5b5f82015167ffffffffffffffff811115611c2157611c20611654565b5b611c2d84828501611bc2565b91505092915050565b7f4e487b71000000000000000000000000000000000000000000000000000000005f52603260045260245ffd5b5f5ffd5b5f67ffffffffffffffff821115611c8157611c80611a9f565b5b611c8a82611a8f565b9050602081019050919050565b8281835e5f83830152505050565b5f611cb7611cb284611c67565b611afd565b905082815260208101848484011115611cd357611cd2611c63565b5b611cde848285611c97565b509392505050565b5f82601f830112611cfa57611cf9611a8b565b5b8151611d0a848260208601611ca5565b91505092915050565b611d1c816116d8565b8114611d26575f5ffd5b50565b5f81519050611d3781611d13565b92915050565b5f5f5f60608486031215611d5457611d53611650565b5b5f84015167ffffffffffffffff811115611d7157611d70611654565b5b611d7d86828701611ce6565b9350506020611d8e86828701611a4c565b9250506040611d9f86828701611d29565b9150509250925092565b7f4e487b71000000000000000000000000000000000000000000000000000000005f52601160045260245ffd5b5f611de08261170b565b9150611deb8361170b565b9250828201905080821115611e0357611e02611da9565b5b92915050565b5f611e138261170b565b91507fffffffffffffffffffffffffffffffffffffffffffffffffffffffffffffffff8203611e4557611e44611da9565b5b600182019050919050565b5f604082019050611e635f830185611a24565b611e706020830184611714565b9392505050565b5f60208284031215611e8c57611e8b611650565b5b5f611e9984828501611d29565b91505092915050565b5f82825260208201905092915050565b7f5061796d656e74206661696c65640000000000000000000000000000000000005f82015250565b5f611ee6600e83611ea2565b9150611ef182611eb2565b602082019050919050565b5f6020820190508181035f830152611f1381611eda565b9050919050565b5f604082019050611f2d5f830185611714565b611f3a6020830184611714565b9392505050565b7f456d657267656e6379207769746864726177206661696c6564000000000000005f82015250565b5f611f75601983611ea2565b9150611f8082611f41565b602082019050919050565b5f6020820190508181035f830152611fa281611f69565b9050919050565b7f416d6f756e74206d7573742062652067726561746572207468616e20300000005f82015250565b5f611fdd601d83611ea2565b9150611fe882611fa9565b602082019050919050565b5f6020820190508181035f83015261200a81611fd1565b9050919050565b5f6060820190506120245f830186611a24565b6120316020830185611a24565b61203e6040830184611714565b949350505050565b7f55534443207472616e73666572206661696c65640000000000000000000000005f82015250565b5f61207a601483611ea2565b915061208582612046565b602082019050919050565b5f6020820190508181035f8301526120a78161206e565b9050919050565b5f6040820190506120c15f830185611a24565b6120ce602083018461179a565b939250505056fea264697066735822122083fd70be35f42b6ab851d98f354bdea44ba0562512c6e3249b8817aee2f3f9cc64736f6c634300081e0033",
    "linkReferences": {}
  },
  "methodIdentifiers": {
    "ADMIN_ROLE()": "75b238fc",
    "DEFAULT_ADMIN_ROLE()": "a217fddf",
    "PAYROLL_OPERATOR_ROLE()": "357b750b",
    "currentPayrollId()": "fd2a52a1",
    "depositPayroll(uint256)": "bab73479",
    "emergencyWithdraw(uint256)": "5312ea8e",
    "employeeRegistry()": "6ddc9425",
    "executePayroll()": "1e588ae6",
    "getBalance()": "12065fe0",
    "getRoleAdmin(bytes32)": "248a9ca3",
    "grantRole(bytes32,address)": "2f2ff15d",
    "hasRole(bytes32,address)": "91d14854",
    "pause()": "8456cb59",
    "paused()": "5c975abb",
    "payrollClaims(uint256,address)": "ec00cdbc",
    "payrollRuns(uint256)": "973a6b53",
    "renounceRole(bytes32,address)": "36568abe",
    "revokeRole(bytes32,address)": "d547741f",
    "setEmployeeRegistry(address)": "5b2d3bf7",
    "supportsInterface(bytes4)": "01ffc9a7",
    "totalPayrollRuns()": "031c8eea",
    "unpause()": "3f4ba83a",
    "usdc()": "3e413bee"
  },
  "id": 25
}